{
  "_format": "hh-sol-artifact-1",
  "contractName": "SecurityToken",
  "sourceName": "contracts/securities.sol",
  "abi": [
    {
      "inputs": [
        {
          "internalType": "string",
          "name": "_name",
          "type": "string"
        },
        {
          "internalType": "string",
          "name": "_symbol",
          "type": "string"
        },
        {
          "internalType": "string",
          "name": "_offeringName",
          "type": "string"
        },
        {
          "internalType": "string",
          "name": "_offeringType",
          "type": "string"
        },
        {
          "internalType": "uint256",
          "name": "_totalShares",
          "type": "uint256"
        },
        {
          "internalType": "uint256",
          "name": "_sharePrice",
          "type": "uint256"
        },
        {
          "internalType": "address",
          "name": "_custodian",
          "type": "address"
        }
      ],
      "stateMutability": "nonpayable",
      "type": "constructor"
    },
    {
      "inputs": [
        {
          "internalType": "address",
          "name": "spender",
          "type": "address"
        },
        {
          "internalType": "uint256",
          "name": "allowance",
          "type": "uint256"
        },
        {
          "internalType": "uint256",
          "name": "needed",
          "type": "uint256"
        }
      ],
      "name": "ERC20InsufficientAllowance",
      "type": "error"
    },
    {
      "inputs": [
        {
          "internalType": "address",
          "name": "sender",
          "type": "address"
        },
        {
          "internalType": "uint256",
          "name": "balance",
          "type": "uint256"
        },
        {
          "internalType": "uint256",
          "name": "needed",
          "type": "uint256"
        }
      ],
      "name": "ERC20InsufficientBalance",
      "type": "error"
    },
    {
      "inputs": [
        {
          "internalType": "address",
          "name": "approver",
          "type": "address"
        }
      ],
      "name": "ERC20InvalidApprover",
      "type": "error"
    },
    {
      "inputs": [
        {
          "internalType": "address",
          "name": "receiver",
          "type": "address"
        }
      ],
      "name": "ERC20InvalidReceiver",
      "type": "error"
    },
    {
      "inputs": [
        {
          "internalType": "address",
          "name": "sender",
          "type": "address"
        }
      ],
      "name": "ERC20InvalidSender",
      "type": "error"
    },
    {
      "inputs": [
        {
          "internalType": "address",
          "name": "spender",
          "type": "address"
        }
      ],
      "name": "ERC20InvalidSpender",
      "type": "error"
    },
    {
      "anonymous": false,
      "inputs": [
        {
          "indexed": true,
          "internalType": "address",
          "name": "owner",
          "type": "address"
        },
        {
          "indexed": true,
          "internalType": "address",
          "name": "spender",
          "type": "address"
        },
        {
          "indexed": false,
          "internalType": "uint256",
          "name": "value",
          "type": "uint256"
        }
      ],
      "name": "Approval",
      "type": "event"
    },
    {
      "anonymous": false,
      "inputs": [
        {
          "indexed": false,
          "internalType": "uint256",
          "name": "amount",
          "type": "uint256"
        }
      ],
      "name": "CheckBalance",
      "type": "event"
    },
    {
      "anonymous": false,
      "inputs": [
        {
          "indexed": true,
          "internalType": "address",
          "name": "from",
          "type": "address"
        },
        {
          "indexed": true,
          "internalType": "address",
          "name": "to",
          "type": "address"
        },
        {
          "indexed": false,
          "internalType": "uint256",
          "name": "value",
          "type": "uint256"
        }
      ],
      "name": "Transfer",
      "type": "event"
    },
    {
      "inputs": [
        {
          "internalType": "address",
          "name": "owner",
          "type": "address"
        },
        {
          "internalType": "address",
          "name": "spender",
          "type": "address"
        }
      ],
      "name": "allowance",
      "outputs": [
        {
          "internalType": "uint256",
          "name": "",
          "type": "uint256"
        }
      ],
      "stateMutability": "view",
      "type": "function"
    },
    {
      "inputs": [
        {
          "internalType": "address",
          "name": "spender",
          "type": "address"
        },
        {
          "internalType": "uint256",
          "name": "value",
          "type": "uint256"
        }
      ],
      "name": "approve",
      "outputs": [
        {
          "internalType": "bool",
          "name": "",
          "type": "bool"
        }
      ],
      "stateMutability": "nonpayable",
      "type": "function"
    },
    {
      "inputs": [
        {
          "internalType": "address",
          "name": "account",
          "type": "address"
        }
      ],
      "name": "balanceOf",
      "outputs": [
        {
          "internalType": "uint256",
          "name": "",
          "type": "uint256"
        }
      ],
      "stateMutability": "view",
      "type": "function"
    },
    {
      "inputs": [],
      "name": "custodian",
      "outputs": [
        {
          "internalType": "address",
          "name": "",
          "type": "address"
        }
      ],
      "stateMutability": "view",
      "type": "function"
    },
    {
      "inputs": [],
      "name": "decimals",
      "outputs": [
        {
          "internalType": "uint8",
          "name": "",
          "type": "uint8"
        }
      ],
      "stateMutability": "view",
      "type": "function"
    },
    {
      "inputs": [
        {
          "internalType": "address",
          "name": "user_account",
          "type": "address"
        }
      ],
      "name": "getBalance",
      "outputs": [
        {
          "internalType": "uint256",
          "name": "",
          "type": "uint256"
        }
      ],
      "stateMutability": "nonpayable",
      "type": "function"
    },
    {
      "inputs": [
        {
          "internalType": "address",
          "name": "investor",
          "type": "address"
        },
        {
          "internalType": "uint256",
          "name": "amount",
          "type": "uint256"
        }
      ],
      "name": "issueShares",
      "outputs": [],
      "stateMutability": "nonpayable",
      "type": "function"
    },
    {
      "inputs": [],
      "name": "issuedShares",
      "outputs": [
        {
          "internalType": "uint256",
          "name": "",
          "type": "uint256"
        }
      ],
      "stateMutability": "view",
      "type": "function"
    },
    {
      "inputs": [],
      "name": "name",
      "outputs": [
        {
          "internalType": "string",
          "name": "",
          "type": "string"
        }
      ],
      "stateMutability": "view",
      "type": "function"
    },
    {
      "inputs": [],
      "name": "offeringName",
      "outputs": [
        {
          "internalType": "string",
          "name": "",
          "type": "string"
        }
      ],
      "stateMutability": "view",
      "type": "function"
    },
    {
      "inputs": [],
      "name": "offeringType",
      "outputs": [
        {
          "internalType": "string",
          "name": "",
          "type": "string"
        }
      ],
      "stateMutability": "view",
      "type": "function"
    },
    {
      "inputs": [
        {
          "internalType": "address",
          "name": "investor",
          "type": "address"
        },
        {
          "internalType": "uint256",
          "name": "amount",
          "type": "uint256"
        }
      ],
      "name": "redeemShares",
      "outputs": [],
      "stateMutability": "nonpayable",
      "type": "function"
    },
    {
      "inputs": [],
      "name": "sharePrice",
      "outputs": [
        {
          "internalType": "uint256",
          "name": "",
          "type": "uint256"
        }
      ],
      "stateMutability": "view",
      "type": "function"
    },
    {
      "inputs": [],
      "name": "symbol",
      "outputs": [
        {
          "internalType": "string",
          "name": "",
          "type": "string"
        }
      ],
      "stateMutability": "view",
      "type": "function"
    },
    {
      "inputs": [],
      "name": "totalShares",
      "outputs": [
        {
          "internalType": "uint256",
          "name": "",
          "type": "uint256"
        }
      ],
      "stateMutability": "view",
      "type": "function"
    },
    {
      "inputs": [],
      "name": "totalSupply",
      "outputs": [
        {
          "internalType": "uint256",
          "name": "",
          "type": "uint256"
        }
      ],
      "stateMutability": "view",
      "type": "function"
    },
    {
      "inputs": [
        {
          "internalType": "address",
          "name": "to",
          "type": "address"
        },
        {
          "internalType": "uint256",
          "name": "value",
          "type": "uint256"
        }
      ],
      "name": "transfer",
      "outputs": [
        {
          "internalType": "bool",
          "name": "",
          "type": "bool"
        }
      ],
      "stateMutability": "nonpayable",
      "type": "function"
    },
    {
      "inputs": [
        {
          "internalType": "address",
          "name": "from",
          "type": "address"
        },
        {
          "internalType": "address",
          "name": "to",
          "type": "address"
        },
        {
          "internalType": "uint256",
          "name": "value",
          "type": "uint256"
        }
      ],
      "name": "transferFrom",
      "outputs": [
        {
          "internalType": "bool",
          "name": "",
          "type": "bool"
        }
      ],
      "stateMutability": "nonpayable",
      "type": "function"
    },
    {
      "inputs": [
        {
          "internalType": "address",
          "name": "newOwner",
          "type": "address"
        }
      ],
      "name": "transferOwnership",
      "outputs": [],
      "stateMutability": "nonpayable",
      "type": "function"
    }
  ],
  "bytecode": "0x60806040523480156200001157600080fd5b506040516200200838038062002008833981810160405281019062000037919062000353565b868681600390816200004a9190620006c3565b5080600490816200005c9190620006c3565b5050508460069081620000709190620006c3565b508360079081620000829190620006c3565b50826008819055508160098190555080600b60006101000a81548173ffffffffffffffffffffffffffffffffffffffff021916908373ffffffffffffffffffffffffffffffffffffffff16021790555033600560006101000a81548173ffffffffffffffffffffffffffffffffffffffff021916908373ffffffffffffffffffffffffffffffffffffffff16021790555050505050505050620007aa565b6000604051905090565b600080fd5b600080fd5b600080fd5b600080fd5b6000601f19601f8301169050919050565b7f4e487b7100000000000000000000000000000000000000000000000000000000600052604160045260246000fd5b62000189826200013e565b810181811067ffffffffffffffff82111715620001ab57620001aa6200014f565b5b80604052505050565b6000620001c062000120565b9050620001ce82826200017e565b919050565b600067ffffffffffffffff821115620001f157620001f06200014f565b5b620001fc826200013e565b9050602081019050919050565b60005b83811015620002295780820151818401526020810190506200020c565b60008484015250505050565b60006200024c6200024684620001d3565b620001b4565b9050828152602081018484840111156200026b576200026a62000139565b5b6200027884828562000209565b509392505050565b600082601f83011262000298576200029762000134565b5b8151620002aa84826020860162000235565b91505092915050565b6000819050919050565b620002c881620002b3565b8114620002d457600080fd5b50565b600081519050620002e881620002bd565b92915050565b600073ffffffffffffffffffffffffffffffffffffffff82169050919050565b60006200031b82620002ee565b9050919050565b6200032d816200030e565b81146200033957600080fd5b50565b6000815190506200034d8162000322565b92915050565b600080600080600080600060e0888a0312156200037557620003746200012a565b5b600088015167ffffffffffffffff8111156200039657620003956200012f565b5b620003a48a828b0162000280565b975050602088015167ffffffffffffffff811115620003c857620003c76200012f565b5b620003d68a828b0162000280565b965050604088015167ffffffffffffffff811115620003fa57620003f96200012f565b5b620004088a828b0162000280565b955050606088015167ffffffffffffffff8111156200042c576200042b6200012f565b5b6200043a8a828b0162000280565b94505060806200044d8a828b01620002d7565b93505060a0620004608a828b01620002d7565b92505060c0620004738a828b016200033c565b91505092959891949750929550565b600081519050919050565b7f4e487b7100000000000000000000000000000000000000000000000000000000600052602260045260246000fd5b60006002820490506001821680620004d557607f821691505b602082108103620004eb57620004ea6200048d565b5b50919050565b60008190508160005260206000209050919050565b60006020601f8301049050919050565b600082821b905092915050565b600060088302620005557fffffffffffffffffffffffffffffffffffffffffffffffffffffffffffffffff8262000516565b62000561868362000516565b95508019841693508086168417925050509392505050565b6000819050919050565b6000620005a46200059e6200059884620002b3565b62000579565b620002b3565b9050919050565b6000819050919050565b620005c08362000583565b620005d8620005cf82620005ab565b84845462000523565b825550505050565b600090565b620005ef620005e0565b620005fc818484620005b5565b505050565b5b81811015620006245762000618600082620005e5565b60018101905062000602565b5050565b601f82111562000673576200063d81620004f1565b620006488462000506565b8101602085101562000658578190505b62000670620006678562000506565b83018262000601565b50505b505050565b600082821c905092915050565b6000620006986000198460080262000678565b1980831691505092915050565b6000620006b3838362000685565b9150826002028217905092915050565b620006ce8262000482565b67ffffffffffffffff811115620006ea57620006e96200014f565b5b620006f68254620004bc565b6200070382828562000628565b600060209050601f8311600181146200073b576000841562000726578287015190505b620007328582620006a5565b865550620007a2565b601f1984166200074b86620004f1565b60005b8281101562000775578489015182556001820191506020850194506020810190506200074e565b8683101562000795578489015162000791601f89168262000685565b8355505b6001600288020188555050505b505050505050565b61184e80620007ba6000396000f3fe608060405234801561001057600080fd5b50600436106101215760003560e01c806387269729116100ad578063dd62ed3e11610071578063dd62ed3e14610310578063e74bffc014610340578063efc7a8ee1461035e578063f2fde38b1461037a578063f8b2cb4f1461039657610121565b8063872697291461026a5780638862d26a1461028857806395d89b41146102a6578063a9059cbb146102c4578063b8aa3775146102f457610121565b806323b872dd116100f457806323b872dd146101b0578063313ce567146101e0578063375b74c3146101fe5780633a98ef391461021c57806370a082311461023a57610121565b806306fdde0314610126578063095ea7b31461014457806318160ddd146101745780632208830d14610192575b600080fd5b61012e6103c6565b60405161013b9190611272565b60405180910390f35b61015e6004803603810190610159919061132d565b610458565b60405161016b9190611388565b60405180910390f35b61017c61047b565b60405161018991906113b2565b60405180910390f35b61019a610485565b6040516101a791906113b2565b60405180910390f35b6101ca60048036038101906101c591906113cd565b61048b565b6040516101d79190611388565b60405180910390f35b6101e86104ba565b6040516101f5919061143c565b60405180910390f35b6102066104c3565b6040516102139190611466565b60405180910390f35b6102246104e9565b60405161023191906113b2565b60405180910390f35b610254600480360381019061024f9190611481565b6104ef565b60405161026191906113b2565b60405180910390f35b610272610537565b60405161027f91906113b2565b60405180910390f35b61029061053d565b60405161029d9190611272565b60405180910390f35b6102ae6105cb565b6040516102bb9190611272565b60405180910390f35b6102de60048036038101906102d9919061132d565b61065d565b6040516102eb9190611388565b60405180910390f35b61030e6004803603810190610309919061132d565b610680565b005b61032a600480360381019061032591906114ae565b610782565b60405161033791906113b2565b60405180910390f35b610348610809565b6040516103559190611272565b60405180910390f35b6103786004803603810190610373919061132d565b610897565b005b610394600480360381019061038f9190611481565b6109a0565b005b6103b060048036038101906103ab9190611481565b610ae3565b6040516103bd91906113b2565b60405180910390f35b6060600380546103d59061151d565b80601f01602080910402602001604051908101604052809291908181526020018280546104019061151d565b801561044e5780601f106104235761010080835404028352916020019161044e565b820191906000526020600020905b81548152906001019060200180831161043157829003601f168201915b5050505050905090565b600080610463610b40565b9050610470818585610b48565b600191505092915050565b6000600254905090565b600a5481565b600080610496610b40565b90506104a3858285610b5a565b6104ae858585610bee565b60019150509392505050565b60006012905090565b600b60009054906101000a900473ffffffffffffffffffffffffffffffffffffffff1681565b60085481565b60008060008373ffffffffffffffffffffffffffffffffffffffff1673ffffffffffffffffffffffffffffffffffffffff168152602001908152602001600020549050919050565b60095481565b6007805461054a9061151d565b80601f01602080910402602001604051908101604052809291908181526020018280546105769061151d565b80156105c35780601f10610598576101008083540402835291602001916105c3565b820191906000526020600020905b8154815290600101906020018083116105a657829003601f168201915b505050505081565b6060600480546105da9061151d565b80601f01602080910402602001604051908101604052809291908181526020018280546106069061151d565b80156106535780601f1061062857610100808354040283529160200191610653565b820191906000526020600020905b81548152906001019060200180831161063657829003601f168201915b5050505050905090565b600080610668610b40565b9050610675818585610bee565b600191505092915050565b3373ffffffffffffffffffffffffffffffffffffffff16600560009054906101000a900473ffffffffffffffffffffffffffffffffffffffff1673ffffffffffffffffffffffffffffffffffffffff1614610710576040517f08c379a0000000000000000000000000000000000000000000000000000000008152600401610707906115c0565b60405180910390fd5b8061071a836104ef565b101561075b576040517f08c379a00000000000000000000000000000000000000000000000000000000081526004016107529061162c565b60405180910390fd5b6107658282610ce2565b80600a6000828254610777919061167b565b925050819055505050565b6000600160008473ffffffffffffffffffffffffffffffffffffffff1673ffffffffffffffffffffffffffffffffffffffff16815260200190815260200160002060008373ffffffffffffffffffffffffffffffffffffffff1673ffffffffffffffffffffffffffffffffffffffff16815260200190815260200160002054905092915050565b600680546108169061151d565b80601f01602080910402602001604051908101604052809291908181526020018280546108429061151d565b801561088f5780601f106108645761010080835404028352916020019161088f565b820191906000526020600020905b81548152906001019060200180831161087257829003601f168201915b505050505081565b3373ffffffffffffffffffffffffffffffffffffffff16600560009054906101000a900473ffffffffffffffffffffffffffffffffffffffff1673ffffffffffffffffffffffffffffffffffffffff1614610927576040517f08c379a000000000000000000000000000000000000000000000000000000000815260040161091e906115c0565b60405180910390fd5b60085481600a5461093891906116af565b1115610979576040517f08c379a00000000000000000000000000000000000000000000000000000000081526004016109709061172f565b60405180910390fd5b6109838282610d64565b80600a600082825461099591906116af565b925050819055505050565b3373ffffffffffffffffffffffffffffffffffffffff16600560009054906101000a900473ffffffffffffffffffffffffffffffffffffffff1673ffffffffffffffffffffffffffffffffffffffff1614610a30576040517f08c379a0000000000000000000000000000000000000000000000000000000008152600401610a27906115c0565b60405180910390fd5b600073ffffffffffffffffffffffffffffffffffffffff168173ffffffffffffffffffffffffffffffffffffffff1603610a9f576040517f08c379a0000000000000000000000000000000000000000000000000000000008152600401610a96906117c1565b60405180910390fd5b80600560006101000a81548173ffffffffffffffffffffffffffffffffffffffff021916908373ffffffffffffffffffffffffffffffffffffffff16021790555050565b6000808273ffffffffffffffffffffffffffffffffffffffff163190507f7c4b3ebe24b67f845d481885128ad41f55e5d927e00e2573453e1a8cf437b75c81604051610b2f91906113b2565b60405180910390a180915050919050565b600033905090565b610b558383836001610de6565b505050565b6000610b668484610782565b90507fffffffffffffffffffffffffffffffffffffffffffffffffffffffffffffffff8114610be85781811015610bd8578281836040517ffb8f41b2000000000000000000000000000000000000000000000000000000008152600401610bcf939291906117e1565b60405180910390fd5b610be784848484036000610de6565b5b50505050565b600073ffffffffffffffffffffffffffffffffffffffff168373ffffffffffffffffffffffffffffffffffffffff1603610c605760006040517f96c6fd1e000000000000000000000000000000000000000000000000000000008152600401610c579190611466565b60405180910390fd5b600073ffffffffffffffffffffffffffffffffffffffff168273ffffffffffffffffffffffffffffffffffffffff1603610cd25760006040517fec442f05000000000000000000000000000000000000000000000000000000008152600401610cc99190611466565b60405180910390fd5b610cdd838383610fbd565b505050565b600073ffffffffffffffffffffffffffffffffffffffff168273ffffffffffffffffffffffffffffffffffffffff1603610d545760006040517f96c6fd1e000000000000000000000000000000000000000000000000000000008152600401610d4b9190611466565b60405180910390fd5b610d6082600083610fbd565b5050565b600073ffffffffffffffffffffffffffffffffffffffff168273ffffffffffffffffffffffffffffffffffffffff1603610dd65760006040517fec442f05000000000000000000000000000000000000000000000000000000008152600401610dcd9190611466565b60405180910390fd5b610de260008383610fbd565b5050565b600073ffffffffffffffffffffffffffffffffffffffff168473ffffffffffffffffffffffffffffffffffffffff1603610e585760006040517fe602df05000000000000000000000000000000000000000000000000000000008152600401610e4f9190611466565b60405180910390fd5b600073ffffffffffffffffffffffffffffffffffffffff168373ffffffffffffffffffffffffffffffffffffffff1603610eca5760006040517f94280d62000000000000000000000000000000000000000000000000000000008152600401610ec19190611466565b60405180910390fd5b81600160008673ffffffffffffffffffffffffffffffffffffffff1673ffffffffffffffffffffffffffffffffffffffff16815260200190815260200160002060008573ffffffffffffffffffffffffffffffffffffffff1673ffffffffffffffffffffffffffffffffffffffff168152602001908152602001600020819055508015610fb7578273ffffffffffffffffffffffffffffffffffffffff168473ffffffffffffffffffffffffffffffffffffffff167f8c5be1e5ebec7d5bd14f71427d1e84f3dd0314c0f7b2291e5b200ac8c7c3b92584604051610fae91906113b2565b60405180910390a35b50505050565b600073ffffffffffffffffffffffffffffffffffffffff168373ffffffffffffffffffffffffffffffffffffffff160361100f57806002600082825461100391906116af565b925050819055506110e2565b60008060008573ffffffffffffffffffffffffffffffffffffffff1673ffffffffffffffffffffffffffffffffffffffff1681526020019081526020016000205490508181101561109b578381836040517fe450d38c000000000000000000000000000000000000000000000000000000008152600401611092939291906117e1565b60405180910390fd5b8181036000808673ffffffffffffffffffffffffffffffffffffffff1673ffffffffffffffffffffffffffffffffffffffff16815260200190815260200160002081905550505b600073ffffffffffffffffffffffffffffffffffffffff168273ffffffffffffffffffffffffffffffffffffffff160361112b5780600260008282540392505081905550611178565b806000808473ffffffffffffffffffffffffffffffffffffffff1673ffffffffffffffffffffffffffffffffffffffff168152602001908152602001600020600082825401925050819055505b8173ffffffffffffffffffffffffffffffffffffffff168373ffffffffffffffffffffffffffffffffffffffff167fddf252ad1be2c89b69c2b068fc378daa952ba7f163c4a11628f55a4df523b3ef836040516111d591906113b2565b60405180910390a3505050565b600081519050919050565b600082825260208201905092915050565b60005b8381101561121c578082015181840152602081019050611201565b60008484015250505050565b6000601f19601f8301169050919050565b6000611244826111e2565b61124e81856111ed565b935061125e8185602086016111fe565b61126781611228565b840191505092915050565b6000602082019050818103600083015261128c8184611239565b905092915050565b600080fd5b600073ffffffffffffffffffffffffffffffffffffffff82169050919050565b60006112c482611299565b9050919050565b6112d4816112b9565b81146112df57600080fd5b50565b6000813590506112f1816112cb565b92915050565b6000819050919050565b61130a816112f7565b811461131557600080fd5b50565b60008135905061132781611301565b92915050565b6000806040838503121561134457611343611294565b5b6000611352858286016112e2565b925050602061136385828601611318565b9150509250929050565b60008115159050919050565b6113828161136d565b82525050565b600060208201905061139d6000830184611379565b92915050565b6113ac816112f7565b82525050565b60006020820190506113c760008301846113a3565b92915050565b6000806000606084860312156113e6576113e5611294565b5b60006113f4868287016112e2565b9350506020611405868287016112e2565b925050604061141686828701611318565b9150509250925092565b600060ff82169050919050565b61143681611420565b82525050565b6000602082019050611451600083018461142d565b92915050565b611460816112b9565b82525050565b600060208201905061147b6000830184611457565b92915050565b60006020828403121561149757611496611294565b5b60006114a5848285016112e2565b91505092915050565b600080604083850312156114c5576114c4611294565b5b60006114d3858286016112e2565b92505060206114e4858286016112e2565b9150509250929050565b7f4e487b7100000000000000000000000000000000000000000000000000000000600052602260045260246000fd5b6000600282049050600182168061153557607f821691505b602082108103611548576115476114ee565b5b50919050565b7f4f6e6c79206f776e65722063616e2063616c6c20746869732066756e6374696f60008201527f6e00000000000000000000000000000000000000000000000000000000000000602082015250565b60006115aa6021836111ed565b91506115b58261154e565b604082019050919050565b600060208201905081810360008301526115d98161159d565b9050919050565b7f496e73756666696369656e742062616c616e6365000000000000000000000000600082015250565b60006116166014836111ed565b9150611621826115e0565b602082019050919050565b6000602082019050818103600083015261164581611609565b9050919050565b7f4e487b7100000000000000000000000000000000000000000000000000000000600052601160045260246000fd5b6000611686826112f7565b9150611691836112f7565b92508282039050818111156116a9576116a861164c565b5b92915050565b60006116ba826112f7565b91506116c5836112f7565b92508282019050808211156116dd576116dc61164c565b5b92915050565b7f4578636565647320746f74616c20617661696c61626c65207368617265730000600082015250565b6000611719601e836111ed565b9150611724826116e3565b602082019050919050565b600060208201905081810360008301526117488161170c565b9050919050565b7f4e6577206f776e65722063616e6e6f7420626520746865207a65726f2061646460008201527f7265737300000000000000000000000000000000000000000000000000000000602082015250565b60006117ab6024836111ed565b91506117b68261174f565b604082019050919050565b600060208201905081810360008301526117da8161179e565b9050919050565b60006060820190506117f66000830186611457565b61180360208301856113a3565b61181060408301846113a3565b94935050505056fea26469706673582212203838cec52ebfce773d34a8515b8248abfeb88e0fbd67fba61c9d9a344c8eb21964736f6c63430008140033",
  "linkReferences": {},
  "deployedLinkReferences": {}
}